:100000000EC028C027C026C025C03EC023C022C0C5
:1000100021C020C01FC01EC01DC01CC01BC0112499
:100020001FBECFE5D2E0DEBFCDBF10E0A0E6B0E05E
:10003000E0E6F2E002C005900D92A23AB107D9F7CE
:1000400010E0A2EAB0E001C01D92AE3AB107E1F7BC
:100050005DD004C1D5CFB89AB99ABA9A80E886BD66
:1000600016BC1092AB001092A8001092AC00109237
:10007000A9001092AD001092AA0082E088BF89BF4B
:1000800081E083BF789408951F920F920FB60F926C
:1000900011248F939F938091A00088BB8091A10031
:1000A0008F5F8093A100882379F49091A8009093AA
:1000B000AB009091A9009093AC009091AA0090930E
:1000C000AD0097E09093A0009091AB00981729F4B1
:1000D0009091A0009E7F9093A0009091AC00981703
:1000E00029F49091A0009D7F9093A0009091AD0085
:1000F000981729F48091A0008B7F8093A0009F9196
:100100008F910F900FBE0F901F901895A4DFC0E045
:10011000D0E001E010E081E0E82EF12C91E0C92E62
:10012000D12C2BE0A22EB12C3DE0832E912C41E16D
:10013000642E712CCE01B5016AD0009751F48091E4
:10014000A6009091A7008C0D9D1D9093A700809311
:10015000A600CE01B4015BD0009751F48091A400B9
:100160009091A5008E0D9F1D9093A5008093A400F3
:10017000CE01B3014CD0009751F48091A200909130
:10018000A300800F911F9093A3008093A200809101
:10019000A6009091A700009719F08F33910521F4E4
:1001A000D094C194D108D394E091A400F091A5001B
:1001B000309719F0EF33F10521F4F094E194F10850
:1001C000F3942091A2003091A3002115310519F07C
:1001D0002F33310519F4109501951F4F805A9F4F09
:1001E000DC018C918093A800E05AFF4F80818093BE
:1001F000A900F901E05AFF4F80818093AA008FE3A4
:100200009CE90197F1F700C00000219693CF97FB7E
:10021000092E07260AD077FD04D00CD006D0002086
:100220001AF4709561957F4F0895F6F79095819532
:100230009F4F0895AA1BBB1B51E107C0AA1FBB1FFC
:10024000A617B70710F0A61BB70B881F991F5A9562
:10025000A9F780959095BC01CD010895F894FFCF42
:10026000000000000001010101010102020202037D
:1002700003030404050506070708090A0B0C0D0E05
:100280001011131517191B1E2124272B2F34383E4C
:10029000434A51586069737E8996A4B3C4D6EAFF75
:0202A00007FF56
:00000001FF
