:100000000EC028C027C026C025C03EC023C022C0C5
:1000100021C020C01FC01EC01DC01CC01BC0112499
:100020001FBECFE5D2E0DEBFCDBF10E0A0E6B0E05E
:10003000ECEDF4E002C005900D92A23AB107D9F7B9
:1000400010E0A2EAB0E001C01D92AE3AB107E1F7BC
:100050005DD042C2D5CFB89AB99ABA9A80E886BD27
:1000600016BC1092AB001092A8001092AC00109237
:10007000A9001092AD001092AA0082E088BF89BF4B
:1000800081E083BF789408951F920F920FB60F926C
:1000900011248F939F938091A00088BB8091A10031
:1000A0008F5F8093A100882379F49091A8009093AA
:1000B000AB009091A9009093AC009091AA0090930E
:1000C000AD0097E09093A0009091AB00981729F4B1
:1000D0009091A0009E7F9093A0009091AC00981703
:1000E00029F49091A0009D7F9093A0009091AD0085
:1000F000981729F48091A0008B7F8093A0009F9196
:100100008F910F900FBE0F901F901895A4DFEE24D3
:10011000FF2481E0C82ED12C91E0A92EB12C21E042
:10012000822E912C3BE0632E712C4DE0442E512CFD
:1001300051E1252E312CC701B301A7D1009751F40D
:100140008091A6009091A700880D991D9093A7001B
:100150008093A600C701B20198D1009751F4809115
:10016000A4009091A5008A0D9B1D9093A5008093FB
:10017000A400C701B10189D1009751F48091A20078
:100180009091A3008C0D9D1D9093A3008093A200DD
:100190008091A6009091A700009719F08F339105E8
:1001A00021F49094819491089394C091A400D091EB
:1001B000A500209719F0CF33D10521F4B094A19474
:1001C000B108B3940091A2001091A300011511058C
:1001D00019F00F33110521F4D094C194D108D394B0
:1001E000805A9F4FFC01608170E080E090E056D023
:1001F00026EF38E24CE15FE3B5D022D06093A8004F
:10020000FE01E05AFF4F80818093A900F801E05A77
:10021000FF4F608170E080E090E040D02DEC3CEC3E
:100220004CE45EE39FD00CD06093AA008FE39CE97E
:100230000197F1F700C000000894E11CF11C7BCF8E
:1002400070D088F09F5790F0B92F9927B751A0F040
:10025000D1F0660F771F881F991F1AF0BA95C9F75A
:1002600012C0B13081F077D0B1E0089574C0672F2B
:10027000782F8827B85F39F0B93FCCF3869577950A
:100280006795B395D9F73EF49095809570956195F3
:100290007F4F8F4F9F4F0895E89409C097FB3EF41E
:1002A00090958095709561957F4F8F4F9F4F9923C3
:1002B000A9F0F92F96E9BB279395F6958795779541
:1002C0006795B795F111F8CFFAF4BB0F11F460FF01
:1002D0001BC06F5F7F4F8F4F9F4F16C0882311F059
:1002E00096E911C0772321F09EE8872F762F05C06D
:1002F000662371F096E8862F70E060E02AF09A9508
:10030000660F771F881FDAF7880F9695879597F9FC
:10031000089557FD9058440F551F59F05F3F71F0F5
:100320004795880F97FB991F61F09F3F79F087955C
:100330000895121613061406551FF2CF4695F1DFE5
:1003400008C0161617061806991FF1CF8695710575
:10035000610508940895E894BB2766277727CB01A9
:1003600097F908950AD080C071D028F076D018F09F
:10037000952309F062C067C0EFCFCBDFA8F39923C4
:10038000D9F35523C9F3950F50E0551FAA27EE273F
:10039000FF27BB2700240894679520F4E20FF31F82
:1003A000B41F0A1E220F331F441FAA1F6695A9F708
:1003B000779530F4F30FB41F0A1E121E08F46395EC
:1003C000330F441FAA1F221F769599F7879520F4B3
:1003D000B40F0A1E121E631F440FAA1F221F331FD1
:1003E0008695A9F7862F712D602D11249F575040B7
:1003F0008AF0E1F088234AF0EE0FFF1FBB1F661F53
:10040000771F881F91505040A9F79E3F510570F00B
:1004100014C0A2CF5F3FECF3983EDCF3869577954E
:100420006795B795F795E7959F5FC1F7FE2B880F06
:10043000911D9695879597F9089597F99F6780E89C
:1004400070E060E008959FEF80EC089500240A9426
:100450001616170618060906089500240A9412169F
:100460001306140605060895092E0394000C11F4D2
:10047000882352F0BB0F40F4BF2B11F460FF04C07F
:100480006F5F7F4F8F4F9F4F089597FB092E072671
:100490000AD077FD04D00CD006D000201AF4709555
:1004A00061957F4F0895F6F7909581959F4F089538
:1004B000AA1BBB1B51E107C0AA1FBB1FA617B7078A
:1004C00010F0A61BB70B881F991F5A95A9F78095A6
:0C04D0009095BC01CD010895F894FFCF79
:1004DC0000000000000101010101010202020203FF
:1004EC0003030404050506070708090A0B0C0D0E87
:1004FC001011131517191B1E2124272B2F34383ECE
:10050C00434A51586069737E8996A4B3C4D6EAFFF6
:02051C0007FFD7
:00000001FF
